:100000000C9440000C944A000C944A000C944A0052
:100010000C944A000C944A000C944A000C944A0038
:100020000C944A000C944A000C944A000C944A0028
:100030000C944A000C9471000C944A000C944A00F1
:100040000C944A000C944A000C944A000C944A0008
:100050000C944A000C94CD000C944A000C944A0075
:100060000C944A000C944A00202B2D2E3031323350
:1000700034353637383968004546476566670000CD
:1000800011241FBECFEFD8E0DEBFCDBF0E94FC0021
:100090000C9416030C944C001F920F920FB60F9203
:1000A000112485B1887F85B95F9884B1876084B950
:1000B000579A85B1887F85B95F98809180008F704D
:1000C00080938000259A90E22FEF31EE84E021505A
:1000D00030408040E1F700C0000085B1892785B934
:1000E000F3CF1F920F920FB60F9211240F900FBEF5
:1000F0000F901F90189580E480937C0087E0809398
:100100007A0081E080937E00809164008E7F8093EE
:10011000640080917A00806880937A0080917A00F0
:10012000806580937A0080917A0084FFFCCF809173
:100130007A00806180937A0086E080937B008091D2
:100140007A00886180937A0080917A00806280933F
:100150007A00089585B1887F85B95F9884B18760FA
:1001600084B9579A85B1887F85B95F98E0E8F0E057
:1001700080818F70808382EF808389E1809381000A
:1001800081E080936F0085E395E0909387008093F2
:10019000860008955F9A289A08951F920F920FB6CD
:1001A0000F9211242F933F938F939F93EF93FF937D
:1001B0002091780030917900C901925026563F4F26
:1001C0003093890020938800880F991F281B390BD2
:1001D00030938B0020938A00EAE7F0E08081806111
:1001E0008083FF91EF919F918F913F912F910F907D
:1001F0000FBE0F901F90189580E284B915B885B195
:10020000887F85B95F9884B1876084B9579A85B132
:10021000887F85B95F98809180008F70809380007F
:100220008DE291E030E20CC02FEF41EE54E021501E
:1002300040405040E1F700C0000025B1232725B918
:10024000019791F70E947B000E94AA000E94CA00B9
:10025000789490E28FEF29E638E1815020403040D9
:10026000E1F700C0000085B1892785B97894F2CF05
:100270006F927F929F92AF92BF92CF92DF92EF9256
:10028000FF920F931F93CF93DF93CDB7DEB72C97D9
:100290000FB6F894DEBF0FBECDBF8C017B013A01D3
:1002A000FC0117821682838181FD03C013C13601D0
:1002B00005C0AA24A394B12CAC0EBD1EF801D380B6
:1002C000F701D3FC8591D3FE81917F01882309F446
:1002D000FDC0853239F4D3FC2591D3FE21917F01F5
:1002E000253219F5B80190E00E948C026301DFCF3E
:1002F000222309F4EBC0622F70E088E690E02C879F
:100300000E9481022C85892B49F4233219F4F0E1F3
:100310009F2A04C02C3679F420E8922AF701D3FCF6
:100320002591D3FE21917F0101C0912C97FEE0CF52
:10033000222309F4CBC0622F70E088E790E02C877D
:100340000E9481022C85892B41F06301F4E0CF0EDD
:10035000D11CB8018FE390E00FC0233629F023377A
:1003600081F0233519F50BC0630122E0C20ED11CC8
:10037000B801F301808191810E948C0298CFF1E055
:100380009F2A630122E0C20ED11CF30160807180BC
:1003900004C0B80190E00E948C02F30190FC8591AA
:1003A00090FE81913F018111F4CF81CF243611F06D
:1003B000293631F5630197FE09C0F4E0CF0ED11C58
:1003C000F30160817181828193810AC0F2E0CF0ED6
:1003D000D11CF30160817181882777FD8095982F6A
:1003E000FFEE9F2297FF09C09095809570956195CB
:1003F0007F4F8F4F9F4F20E4922A2AE030E036C093
:10040000203791F030F42835B1F02F3609F05EC076
:1004100017C0253721F0283709F058C007C08FEEE4
:1004200098222AE030E00EC0E0E19E2AF4E29F2A02
:1004300020E130E007C024E0922A20E132E002C04F
:1004400028E030E0630197FE09C084E0C80ED11CAB
:10045000F301608171818281938108C0F2E0CF0E47
:10046000D11CF3016081718180E090E0A5010E94C0
:10047000B802782E7A1896FE05C0B8018DE290E099
:100480000E948C0294FE16C0FE01E70DF11D8081D2
:10049000803381F0B80180E390E00E948C0292FEEC
:1004A00009C0292D2072822F90E0B801885A9F4FF1
:1004B0000E948C027A94F501E70DF11DB80180814C
:1004C00090E00E948C027110F5CFF1CEF8012681E8
:1004D000378102C02FEF3FEFC9012C960FB6F89479
:1004E000DEBF0FBECDBFDF91CF911F910F91FF9067
:1004F000EF90DF90CF90BF90AF909F907F906F90E4
:100500000895FC010590061621F00020D9F7C001DE
:1005100008953197CF0108950F931F93CF93DF93E1
:100520008C01EB018B8181FD03C00FEF1FEF1AC01F
:1005300082FF0DC02E813F818C819D812817390754
:1005400064F4E881F9810193F983E88306C0E885C2
:10055000F985802F0995892B41F78E819F8101961E
:100560009F838E83C801DF91CF911F910F910895D2
:10057000FA01AA27283051F1203181F1E8946F93D4
:100580006E7F6E5F7F4F8F4F9F4FAF4FB1E03ED07A
:10059000B4E03CD0670F781F891F9A1FA11D680F18
:1005A000791F8A1F911DA11D6A0F711D811D911D4B
:1005B000A11D20D009F468943F912AE0269F1124C0
:1005C0003019305D3193DEF6CF010895462F477024
:1005D000405D4193B3E00FD0C9F7F6CF462F4F707F
:1005E000405D4A3318F0495D31FD4052419302D0DD
:1005F000A9F7EACFB4E0A695979587957795679583
:10060000BA95C9F700976105710508959B01AC0182
:100610000A2E06945795479537952795BA95C9F7A9
:10062000620F731F841F951FA01D0895F894FFCFBC
:00000001FF
